:020000040800F2
:1000000000000220BD1F0008B1080008B308000866
:10001000B5080008B7080008B9080008000000008B
:10002000000000000000000000000000BB08000805
:10003000BD08000800000000BF080008C108000853
:100040000D2000080D2000080D2000080D200008DC
:100050000D2000080D2000080D2000080D200008CC
:100060000D2000080D2000080D2000080D200008BC
:100070000D2000080D2000080D2000080D200008AC
:100080000D2000080D2000080D2000080D2000089C
:100090000D2000080D2000080D2000080D2000088C
:1000A0000D2000080D2000080D2000080D2000087C
:1000B0000D2000080D2000080D2000080D2000086C
:1000C0000D2000080D2000080D2000080D2000085C
:1000D0000D2000080D2000080D2000080D2000084C
:1000E0000D2000080D2000080D2000080D2000083C
:1000F0000D2000080D2000080D2000080D2000082C
:100100000D2000080D2000080D2000080D2000081B
:100110000D2000080D2000080D2000080D2000080B
:10012000C90800080D200008D90800080D200008A3
:100130000D2000080D2000080D2000080D200008EB
:100140000D2000080D2000080D2000080D200008DB
:100150000D2000080D2000080D2000080D200008CB
:100160000D2000080D2000080D2000080D200008BB
:100170000D2000080D2000080D20000800000000E0
:080180000D2000080D2000080D
:1001880010B5054C237833B9044B13B10448AFF3C9
:1001980000800123237010BD3C04002000000000F3
:1001A800DC21000808B5034B1BB103490348AFF332
:1001B800008008BD0000000040040020DC21000889
:1001C80053B94AB9002908BF00281CBF4FF0FF31B6
:1001D8004FF0FF3000F074B9ADF1080C6DE904CEB2
:1001E80000F006F8DDF804E0DDE9022304B070470A
:1001F8002DE9F047089D04468E46002B4DD18A42D2
:10020800944669D9B2FA82F252B101FA02F3C2F104
:10021800200120FA01F10CFA02FC41EA030E944095
:100228004FEA1C48210CBEFBF8F61FFA8CF708FBB6
:1002380016E341EA034306FB07F199420AD91CEB8E
:10024800030306F1FF3080F01F81994240F21C81C0
:10025800023E63445B1AA4B2B3FBF8F008FB103308
:1002680044EA034400FB07F7A7420AD91CEB04043D
:1002780000F1FF3380F00A81A74240F2078164440D
:10028800023840EA0640E41B00261DB1D440002392
:10029800C5E900433146BDE8F0878B4209D9002DF6
:1002A80000F0EF800026C5E9000130463146BDE880
:1002B800F087B3FA83F6002E4AD18B4202D38242EA
:1002C80000F2F980841A61EB030301209E46002D99
:1002D800E0D0C5E9004EDDE702B9FFDEB2FA82F2EE
:1002E800002A40F09280A1EB0C014FEA1C471FFA4C
:1002F8008CFE0126200CB1FBF7F307FB131140EA33
:1003080001410EFB03F0884208D91CEB010103F1FF
:10031800FF3802D2884200F2CB804346091AA4B2C1
:10032800B1FBF7F007FB101144EA01440EFB00FE95
:10033800A64508D91CEB040400F1FF3102D2A645FA
:1003480000F2BB800846A4EB0E0440EA03409CE799
:10035800C6F12007B34022FA07FC4CEA030C20FA46
:1003680007F401FA06F31C43F9404FEA1C4900FA66
:1003780006F3B1FBF9F8200C1FFA8CFE09FB1811E3
:1003880040EA014108FB0EF0884202FA06F20BD956
:100398001CEB010108F1FF3A80F08880884240F2A6
:1003A8008580A8F102086144091AA4B2B1FBF9F0EA
:1003B80009FB101144EA014100FB0EFE8E4508D9E5
:1003C8001CEB010100F1FF346CD28E456AD902386A
:1003D800614440EA0840A0FB0294A1EB0E01A1424F
:1003E800C846A64656D353D05DB1B3EB080261EBBD
:1003F8000E0101FA07F722FA06F3F1401F43C5E997
:10040800007100263146BDE8F087C2F12003D840CC
:100418000CFA02FC21FA03F3914001434FEA1C470E
:100428001FFA8CFEB3FBF7F007FB10360B0C43EA00
:10043800064300FB0EF69E4204FA02F408D91CEBB0
:10044800030300F1FF382FD29E422DD902386344AE
:100458009B1B89B2B3FBF7F607FB163341EA03414E
:1004680006FB0EF38B4208D91CEB010106F1FF389D
:1004780016D28B4214D9023E6144C91A46EA004694
:1004880038E72E46284605E70646E3E61846F8E626
:100498004B45A9D2B9EB020864EB0C0E0138A3E76F
:1004A8004646EAE7204694E74046D1E7D0467BE750
:1004B800023B614432E7304609E76444023842E7C8
:1004C800704700BF00B585B00023009301930293E5
:1004D80003931648164A02604FF4803242608360E4
:1004E8000361037680F820304FF08052C2624FF0EB
:1004F800C0628262C3600123C36180F83030436107
:1005080000F08AFB58B901230093019302936946CE
:10051800064800F0ADFB28B905B05DF804FB00F013
:10052800A5F9F0E700F0A2F9F6E700BF58040020AB
:100538000020014000B585B0002300930193029389
:1005480003931648164A02604FF480324260836073
:100558000361037680F820304FF08052C2624FF07A
:10056800C0628262C3600123C36180F83030436196
:1005780000F052FB60B90223009301230193029318
:100588006946064800F074FB28B905B05DF804FB1D
:1005980000F06CF9EFE700F069F9F6E7A004002035
:1005A8000021014030B58BB0044600230593069323
:1005B8000793089309930368404A934204D0404A3A
:1005C80093423DD00BB030BD002501953D4B5A6C90
:1005D80042F480725A645A6C02F480720192019A51
:1005E80002951A6B42F001021A631B6B03F00103B8
:1005F8000293029B022305930323069305A932481D
:1006080000F02CFE3148324B036045608560C560C0
:100618004FF4806303614FF4006343614FF4005368
:1006280083614FF48073C3610562456200F0C2FCC8
:1006380018B9264BA3639C63C4E700F017F9F8E7E1
:10064800002503951F4B5A6C42F400725A645A6C89
:1006580002F400720392039A04951A6B42F00102A5
:100668001A631B6B03F001030493049B0423059393
:100678000323069305A9144800F0F0FD1548164B0E
:1006880003604FF0007343608560C5604FF480637A
:1006980003614FF4006343614FF4005383614FF4E7
:1006A8008073C3610562456200F084FC18B9094B88
:1006B800A3639C6386E700F0D9F8F8E700200140BF
:1006C800002101400038024000000240E8040020F8
:1006D80010640240480500204064024010B582B012
:1006E800002401940D4B1A6B42F480021A631B6BB1
:1006F80003F480030193019B22462146382000F031
:1007080095FB382000F0CAFB224621463A2000F02B
:100718008DFB3A2000F0C2FB02B010BD0038024049
:1007280010B58AB0002205920692079208920992A3
:1007380001921E4B196B41F004011963196B01F00A
:100748000401019101990292196B41F0200119638A
:10075800196B01F02001029102990392196B41F083
:1007680080011963196B01F08001039103990492C8
:10077800196B41F0010119631B6B03F0010304932A
:10078800049B0B4C4FF40071204600F04FFE4FF4D1
:10079800007305930123069302220792089305A983
:1007A800204600F05BFD0AB010BD00BF00380240D3
:1007B8000014024030B595B03022002108A801F09D
:1007C80047FC002403940494059406940794019428
:1007D8001B4B1A6C42F080521A641B6C03F0805356
:1007E8000193019B0294174B1A6842F480421A60E5
:1007F8001B6803F480430293029B0225089501239A
:100808000B9310230C930E950F9408231093A82391
:10081800119312950423139308A800F00DFE0F23DB
:100828000393049505944FF4A05306934FF4805313
:100838000793052103A801F05FF815B030BD00BF8C
:10084800003802400070004008B500F01FF9FFF7BB
:10085800B1FFFFF765FFFFF741FFFFF733FEFFF733
:1008680069FE00F04BF800F097F8FEE770470000CB
:1008780082B0002100910B4B5A6C42F480425A64BA
:100888005A6C02F480420092009A01911A6C42F06C
:1008980080521A641B6C03F080530193019B02B0D1
:1008A800704700BF003802407047FEE7FEE7FEE7EA
:1008B800FEE770477047704708B500F001F908BDBA
:1008C80008B5024800F0DCFB08BD00BFE8040020C2
:1008D80008B5024800F0D4FB08BD00BF4805002059
:1008E800054BD3F8882042F47002C3F888204FF0F3
:1008F80000629A60704700BF00ED00E000B587B065
:1009080000230293039304930593009301931648DD
:100918004FF08042026053224260836040F2E73227
:10092800C26003618023836101F050F998B94FF4E4
:100938008053029302A90C4801F06FF970B9202383
:100948000093002301936946074801F0D3F940B9A1
:1009580007B05DF804FBFFF789FFE8E7FFF786FFBC
:10096800EDE7FFF783FFF3E7A80500200368B3F17D
:10097800804F00D0704782B000230193054B1A6C5A
:1009880042F001021A641B6C03F001030193019BFE
:1009980002B070470038024008B50A480A4B0360A5
:1009A8004FF4E133436000238360C36003610C228A
:1009B80042618361C36101F0CDFA00B908BDFFF758
:1009C80055FFFBE7E80500200010014000B589B09D
:1009D800002303930493059306930793026803F196
:1009E800804303F588339A4202D009B05DF804FBCE
:1009F8000021019103F594335A6C42F010025A64B5
:100A08005A6C02F010020192019A02911A6B42F09C
:100A180001021A631B6B03F001030293029B4FF45C
:100A2800C0630393022304930323069307230793C6
:100A380003A9024800F012FCD7E700BF00000240FB
:100A480010B504460E4B18784FF47A73B3FBF0F3E5
:100A58000C4A1068B0FBF3F000F02EFA68B90F2CBE
:100A680001D901200AE0002221464FF0FF3000F0B2
:100A7800DDF9054B1C60002000E0012010BD00BF1F
:100A880004000020000000200800002008B50B4BDF
:100A98001A6842F400721A601A6842F480621A6096
:100AA8001A6842F480721A60032000F0ADF9002041
:100AB800FFF7C6FFFFF7DCFE002008BD003C024040
:100AC800034A1168034B1B780B441360704700BF3F
:100AD8002806002004000020014B1868704700BF5A
:100AE800280600204A4B5A6822F440325A605A6855
:100AF80041680A435A600268536823F4807353605C
:100B080002685368016943EA012353600268536825
:100B180023F0407353600268536881680B43536045
:100B28000268936823F40063936002689368C1685D
:100B38000B439360826A374B9A4257D00268936896
:100B480023F07063936002689368816A0B43936033
:100B58000268936823F04053936002689368C16AFF
:100B68000B4393600268936823F002039360026862
:100B78009368017E43EA4103936090F82030002B8C
:100B88003FD00268536843F40063536002685368B7
:100B980023F46043536001684B68426A013A43EAB0
:100BA80042334B600268D36A23F47003D36201684E
:100BB800CB6AC269013A43EA0253CB62026893687E
:100BC80023F4007393600268936890F8301043EA46
:100BD800412393600268936823F4806393600268FA
:100BE8009368416943EA8123936070470268936878
:100BF80023F0706393600268936823F04053936016
:100C0800B0E70268536823F400635360CAE700BF83
:100C1800002301400100000F38B310B50446036CEF
:100C280043B1236C13F0100F0BD00120002384F87C
:100C38003C3010BDFFF7B6FC0023636484F83C30F9
:100C4800EFE7236C23F4885323F0020343F00203F5
:100C580023642046FFF746FF00206064236C23F0DE
:100C6800030343F001032364E0E701207047000019
:100C780030B482B00023019390F83C30012B00F08F
:100C8800BB80012380F83C300B68092B41D90468EC
:100C9800E2689BB203EB43031E3B4FF0070C0CFAD0
:100CA80003F322EA0303E3600468E2680B8803EBBA
:100CB80043031E3B8D6805FA03F31343E3604B6857
:100CC800062B3DD80468626B03EB8303053B4FF0AA
:100CD8001F0C0CFA03F322EA030363630468626BD4
:100CE8004B6803EB8303053BB1F800C00CFA03F330
:100CF800134363630268414B9A4251D002683F4BE9
:100D08009A4256D0002380F83C30184602B030BCD6
:100D18007047046822699BB203EB43034FF0070C4A
:100D28000CFA03F322EA03032361046822690B889F
:100D380003EB43038D6805FA03F313432361BEE70E
:100D48000C2B16D805682A6B03EB8303233B1F245F
:100D580004FA03F322EA03032B6305682A6B4B6842
:100D680003EB8303233B0C8804FA03F313432B633D
:100D7800C0E70568EA6A03EB8303413B1F2404FAD2
:100D880003F322EA0303EB620568EA6A4B6803EBA4
:100D98008303413B0C8804FA03F31343EB62A9E78E
:100DA8000B68122BAAD1164A536843F48003536088
:100DB800A4E70B68103B012BA4D8114A536843F4ED
:100DC800000353600B68102B9CD10E4B1B6802F17B
:100DD800467202F52E3202F28332A2FB03239B0CE9
:100DE80003EB83035B00019302E0019B013B01934A
:100DF800019B002BF9D185E7022087E700200140FD
:100E08000023014000000020074AD36823F4E06370
:100E18001B041B0C000200F4E060034343F0BF63B3
:100E280043F40033D360704700ED00E000B5194B80
:100E3800DB68C3F30223C3F1070CBCF1040F28BF1E
:100E48004FF0040C03F1040EBEF1060F18D9033B52
:100E58004FF0FF3E0EFA0CFC21EA0C0199400EFA05
:100E680003F322EA0303194300280BDB0901C9B283
:100E780000F1604000F5614080F800135DF804FB64
:100E88000023E5E700F00F000901C9B2024B19542D
:100E9800F4E700BF00ED00E014ED00E0002807DBF8
:100EA80000F01F02400901239340024A42F8203013
:100EB800704700BF00E100E00138B0F1807F0BD23D
:100EC8004FF0E0235861054AF02182F823100020F2
:100ED800986107221A6170470120704700ED00E011
:100EE80010B40368D9B210390C4AA2FB01421209A6
:100EF8000B4CA25CC2655F2909D923F47F7323F0E8
:100F0800030304338365806D5DF8044B704723F455
:100F18007F7323F003038365F5E700BFABAAAAAA92
:100F28000C220008836A826992B9012B0AD0022B2D
:100F380002D00BB100207047C36A13F0807F28D11C
:100F480000207047C36AB3F1C07F24D000207047E7
:100F5800B2F5005F09D0022B25D9032B25D1C36A2E
:100F680013F0807F23D100207047032B03D8DFE8DC
:100F780003F01404140A00207047C36A13F0807F3A
:100F88000DD100207047C36AB3F1C07F09D000209B
:100F980070470120704701207047012070470120E9
:100FA80070470120704701207047002070470120DA
:100FB8007047000070B50446FFF78EFD002C5BD02B
:100FC8000546002384F83430022384F8353022683B
:100FD800136823F00103136023681A6812F0010FE5
:100FE8000AD0FFF779FD431B052BF5D9202363654C
:100FF800032084F8350070BD1A68204810406168E5
:10100800A2680A43E1680A4321690A4361690A43FD
:10101800A1690A43E1690A43216A0A430243616AF2
:1010280004291ED01A602668756925F00705636AC9
:101038001D43042B07D1A36A1D43E36A1BB1204655
:10104800FFF770FF90B975612046FFF749FFE26D21
:101058003F239340836000206065012384F8353086
:10106800C9E7E16A206B01430A43DBE74023636574
:10107800012084F83500BEE70120BCE73F8010F06E
:10108800F0B583B0044600230193724B1D68724B80
:10109800A3FB0535AD0A876D3E68C26D08239340F2
:1010A800334210D003681A6812F0040F0BD01A6884
:1010B80022F004021A60C26D08239340BB60436D9E
:1010C80043F001034365E26D01239340334209D0A5
:1010D8002268526912F0800F04D0BB60636D43F040
:1010E80002036365E26D04239340334209D022680A
:1010F800126812F0020F04D0BB60636D43F0040362
:101108006365E26D10239340334224D0226812684D
:1011180012F0080F1FD0BB6023681A6812F4802FE2
:101128000DD01B6813F4002F04D1236C9BB120460B
:10113800984710E0A36C73B1204698470BE01A68F3
:1011480012F4807F03D11A6822F008021A60236C17
:101158000BB120469847E26D20239340334255D087
:101168002268126812F0100F50D0BB6094F8353026
:10117800DBB2052B0ED023681A6812F4802F33D007
:101188001B6813F4002F2AD1636C002B3ED0204635
:1011980098473BE02268136823F01603136022681F
:1011A800536923F080035361236CA3B12268136849
:1011B80023F008031360E26D3F239340BB600023D4
:1011C80084F83430012384F83530236D002B3FD068
:1011D800204698473CE0A36C002BE7D1EBE7E36B94
:1011E800A3B12046984711E01A6812F4807F09D10C
:1011F8001A6822F010021A60002384F834300123A0
:1012080084F83530E36B0BB120469847636DFBB12A
:10121800636D13F0010F17D0052384F83530226869
:10122800136823F001031360019B01330193AB4260
:1012380004D823681B6813F0010FF5D1002384F844
:101248003430012384F83530E36C0BB120469847DD
:1012580003B0F0BD00000020B5814E1B00230F2B0A
:1012680000F2DA80F0B583B03AE0072200E000220D
:10127800AA4032430234694D45F82420684A14686C
:101288006FEA0C0224EA0C054E6816F4803F01D080
:101298004CEA0405624C2560646802EA04054E685D
:1012A80016F4003F01D04CEA04055D4C6560A46863
:1012B80002EA04054E6816F4801F01D04CEA0405C2
:1012C800574CA560E46822404D6815F4001F01D012
:1012D8004CEA0402524CE26001330F2B00F29A8070
:1012E80001229A400C6804EA020C32EA0404F3D1A1
:1012F8004C68651E012D03D9112C01D0122C12D176
:1013080085685E000324B44025EA0405CC68B4402F
:101318002C438460456825EA02054C68C4F3001232
:101328009A402A434260C5684FEA430E032404FAF0
:101338000EF4E24325EA04058C6804FA0EF42C4303
:10134800C4604C68022C01D0122C0FD1DD0808357E
:1013580050F8257003F00704A6000F24B44027EACC
:1013680004070C69B4403C4340F825400468144025
:101378004A6802F0030202FA0EF2224302604A6847
:1013880012F0805FA8D000220192264A546C44F4DF
:1013980080445464526C02F480420192019A9C0881
:1013A800A51C1E4A52F8256003F0030295000F227F
:1013B800AA4026EA02061C4A90423FF458AF02F5BA
:1013C800806290421AD002F58062904218D002F5ED
:1013D8008062904216D002F58062904214D002F5E5
:1013E8008062904212D002F58062904210D002F5DD
:1013F800806290423FF439AF082239E7012237E78B
:10140800022235E7032233E7042231E705222FE7DA
:1014180006222DE703B0F0BD704700BF0038014039
:10142800003C014000380240000002400AB18161DE
:101438007047090481617047002800F0DA8170B5AF
:1014480082B00446036813F0010F3BD09F4B9B68A2
:1014580003F00C03042B2CD09C4B9B6803F00C036B
:10146800082B21D06368B3F5803F4FD0B3F5A02F88
:1014780052D0964B1A6822F480321A601A6822F405
:1014880080221A606368002B50D0FFF725FB0546C1
:101498008E4B1B6813F4003F14D1FFF71DFB401B54
:1014A8006428F5D90320ABE1884B5B6813F4800FFF
:1014B800D8D0864B1B6813F4003F03D06368002B19
:1014C80000F09981236813F0020F54D07F4B9B687A
:1014D80013F00C0F3ED07D4B9B6803F00C03082BD8
:1014E80033D0E368002B68D0794B01221A60FFF7EC
:1014F800F3FA0546754B1B6813F0020F54D1FFF73A
:10150800EBFA401B0228F5D9032079E16F4A1368EA
:1015180043F480331360B5E76C4B1A6842F48022B9
:101528001A601A6842F480321A60ABE7FFF7D4FAFF
:101538000546664B1B6813F4003FC3D0FFF7CCFA8F
:10154800401B6428F5D903205AE1604B5B6813F40B
:10155800800FC6D15D4B1B6813F0020F03D0E36800
:10156800012B40F04A81594A136823F0F803216996
:1015780043EAC1031360236813F0080F42D063697C
:101588006BB3534B0122C3F8802EFFF7A5FA05462B
:101598004E4B5B6F13F0020F34D1FFF79DFA401BDF
:1015A8000228F5D903202BE1484A136823F0F803F1
:1015B800216943EAC1031360DDE7454B00221A6045
:1015C800FFF78AFA0546414B1B6813F0020FD2D089
:1015D800FFF782FA401B0228F5D9032010E13C4BA3
:1015E8000022C3F8802EFFF777FA0546374B5B6F6A
:1015F80013F0020F06D0FFF76FFA401B0228F5D947
:101608000320FDE0236813F0040F77D02F4B1B6CE9
:1016180013F0805F33D1002301932C4B1A6C42F0F6
:1016280080521A641B6C03F080530193019B0125BF
:10163800284B1B6813F4807F23D0A368012B34D078
:10164800052B38D0214B1A6F22F001021A671A6F46
:1016580022F004021A67A368002B3DD0FFF73CFA7A
:1016680006461A4B1B6F13F0020F46D1FFF734FAE8
:10167800801B41F288339842F3D90320C0E000254B
:10168800D6E7144A136843F480731360FFF724FA0B
:101698000646104B1B6813F4807FCED1FFF71CFA67
:1016A800801B0228F5D90320AAE0084A136F43F0EB
:1016B80001031367CFE7054B1A6F42F004021A675C
:1016C8001A6F42F001021A67C5E700BF00380240EE
:1016D8000000474200700040FFF7FEF906464F4BF6
:1016E8001B6F13F0020F08D0FFF7F6F9801B41F2C9
:1016F80088339842F3D9032082E0E5B9A369002B27
:101708007DD0464A926802F00C02082A51D0022B7A
:1017180017D0434B00221A66FFF7DEF904463F4B09
:101728001B6813F0007F42D0FFF7D6F9001B022890
:10173800F5D9032064E0394A136C23F0805313640D
:10174800DCE7374B00221A66FFF7C6F90546334B2C
:101758001B6813F0007F06D0FFF7BEF9401B022874
:10176800F5D903204CE0E369226A1343626A43EA2D
:101778008213A26A5208013A43EA0243E26A43EA40
:101788000263264A5360264B01221A66FFF7A4F922
:101798000446224B1B6813F0007F06D1FFF79CF923
:1017A800001B0228F5D903202AE0002028E00020A9
:1017B80026E0012B26D0194B5B6803F48001E2690F
:1017C800914221D103F03F02216A8A421ED1616A07
:1017D80047F6C0721A408A421AD103F44032A16A0D
:1017E8008A4217D103F07063E26A934214D1002051
:1017F80006E001207047012002E0012000E00020FF
:1018080002B070BD0120FBE70120F9E70120F7E7EE
:101818000120F5E70120F3E70120F1E70038024055
:101828000000474208B5314B9B6803F00C03042BBA
:1018380057D0082B57D12D4B5A6802F03F025B68EE
:1018480013F4800F2AD0294B5968C1F3881C4FEA3A
:101858004C11B1EB0C006EEB0E0E4FEA8E1343EAFF
:1018680090638101091A63EB0E03DB0043EA5173AD
:10187800C90011EB0C0C43F10003590200234FEA95
:101888004C2041EADC51FEF79BFC184B5B68C3F324
:10189800014301335B00B0FBF3F025E0134B5968BB
:1018A800C1F3881C4FEA4C11B1EB0C006EEB0E0E25
:1018B8004FEA8E1343EA90638101091A63EB0E0322
:1018C800DB0043EA5173C90011EB0C0C43F1000330
:1018D800990200234FEA8C2041EA9C51FEF770FCE4
:1018E800D3E7034800E0034808BD00BF00380240C2
:1018F80000127A000024F400002800F09B8070B5E4
:101908000D4604464F4B1B6803F00F038B4208D269
:10191800CBB24C4A1370136803F00F038B4240F0AC
:101928008B80236813F0020F17D013F0040F04D034
:10193800454A936843F4E0539360236813F0080F13
:1019480004D0414A936843F4604393603E4A9368E5
:1019580023F0F003A1680B439360236813F0010F91
:1019680032D06368012B21D09A1E012A25D9364A24
:10197800126812F0020F61D033498A6822F003021C
:1019880013438B60FFF7A8F806462F4B9B6803F0BC
:101998000C036268B3EB820F16D0FFF79DF8801B2B
:1019A80041F288339842F0D9032042E0264A12686F
:1019B80012F4003FE0D101203BE0234A126812F004
:1019C800007FD9D1012034E01E4B1B6803F00F03C0
:1019D800AB4207D9EAB21B4B1A701B6803F00F031E
:1019E800AB422DD1236813F0040F06D0164A936832
:1019F80023F4E053E1680B439360236813F0080F66
:101A080007D0114A936823F46043216943EAC1036C
:101A18009360FFF707FF0C4B9B68C3F303130B4A54
:101A2800D35CD8400A4B18600A4B1868FFF708F8CF
:101A3800002070BD012070470120FAE70120F8E777
:101A48000120F6E7003C024000380240F42100087B
:101A58000000002008000020014B1868704700BFF4
:101A68000000002008B5FFF7F7FF044B9B68C3F39D
:101A78008223034AD35CD84008BD00BF0038024027
:101A88000422000808B5FFF7E7FF044B9B68C3F37F
:101A98004233034AD35CD84008BD00BF0038024037
:101AA8000422000810B4036A046A24F001040462E2
:101AB800846924F0F00C4CEA021223F00A030B4369
:101AC800826103625DF8044B704710B4046A24F025
:101AD800100404628469036A24F4704C4CEA0232EC
:101AE80023F0A00343EA0113826103625DF8044B0B
:101AF8007047836823F070030B4343F00703836048
:101B0800704700000368304A904212D0B0F1804F0D
:101B18000FD0A2F57C4290420BD002F58062904231
:101B280007D002F58062904203D002F578429042D5
:101B380003D123F070034A681343234A90422AD002
:101B4800B0F1804F27D0A2F57C42904223D002F515
:101B5800806290421FD002F5806290421BD002F54D
:101B68007842904217D002F57052904213D002F595
:101B7800806290420FD002F5806290420BD0A2F5AD
:101B88009832904207D002F58062904203D002F565
:101B98008062904203D123F44073CA68134323F050
:101BA80080034A69134303608B68C3620B688362CE
:101BB800054B984203D003F58063984201D10B6925
:101BC800036301234361704700000140B0B110B5C1
:101BD800044690F83D3063B1022384F83D30214635
:101BE80051F8040BFFF78EFF012384F83D300020E5
:101BF80010BD80F83C30FEF7B9FEEDE701207047D4
:101C080010B4846824F47F4C42EA03220A4342EA6F
:101C18000C0282605DF8044B704790F83C30012B51
:101C280066D010B50446012380F83C30022380F8C2
:101C38003D300268936823F47F4323F07703936071
:101C48000B68602B40D022D8402B47D00BD9502BA3
:101C58000ED1CA6849680068FFF724FF5021206840
:101C6800FFF747FF04E0202B0CD008D9302B09D010
:101C7800012384F83D30002084F83C0010BD0BB1EE
:101C8800102BF5D119462068FFF733FFF0E7702BCA
:101C98000ED0B3F5005FEBD1CB684A68896800685D
:101CA800FFF7AEFF2268936843F480439360DFE751
:101CB800CB684A6889680068FFF7A2FF22689368C2
:101CC80043F077039360D3E7CA6849680068FFF771
:101CD800FCFE60212068FFF70CFFC9E7CA68496865
:101CE8000068FFF7DFFE40212068FFF702FFBFE72B
:101CF8000220704790F83C30012B3DD010B40123EE
:101D080080F83C30022380F83D3003685A689C68AC
:101D180022F0700C0A6842EA0C025A600368174AFB
:101D280093421AD0B3F1804F17D0A2F57C42934268
:101D380013D002F5806293420FD002F5806293427D
:101D48000BD002F57842934207D002F570529342C5
:101D580003D0A2F59432934204D124F080044A6857
:101D680014439C60012380F83D30002380F83C3008
:101D780018465DF8044B7047022070470000014088
:101D880038B504460268136923F44053C1680B430D
:101D9800136183680269134342691343C2691A4392
:101DA8000168CB6823F4164323F00C031343CB607C
:101DB8000268536923F4407381690B435361C36913
:101DC800B3F5004F35D00368604A934200F0918024
:101DD80002F58062934200F08C80FFF743FE0021F9
:101DE800031849411B1841F10001C90041EA537128
:101DF800DB00181863684FEA83024FEA937341F1D6
:101E08000001FEF7DDF9524DA5FB003251096423AC
:101E180003FB11031B013233A5FB03235B0903F00A
:101E2800F00202EB011203F00F03216813448B60E8
:101E38008AE00368454A93422FD002F580629342B4
:101E48002BD0FFF70FFE0023021843EB03011218F3
:101E580041F10001C90041EA5271D200101841F164
:101E68000001626892185B41FEF7AAF9384DA5FB9C
:101E780000325109642303FB1103DB003233A5FB55
:101E880003235B095A0002F4F87202EB011203F013
:101E98000703216813448B6056E0FFF7F3FD002326
:101EA800021843EB0301121841F10001C90041EA8D
:101EB8005271D200101841F10001626892185B411A
:101EC800FEF77EF9224DA5FB00325109642303FB7E
:101ED8001103DB003233A5FB03235B095A0002F42C
:101EE800F87202EB011203F00703216813448B60B8
:101EF8002AE0FFF7C7FD0021031849411B1841F1EB
:101F08000001C90041EA5371DB00181863684FEA01
:101F180083024FEA937341F10001FEF751F90C4D2A
:101F2800A5FB00325109642303FB11031B01323363
:101F3800A5FB03235B0903F0F00202EB011203F097
:101F48000F03216813448B6038BD00BF00100140A7
:101F58001F85EB5158B310B5044690F839300BB3D0
:101F6800242384F839302268D36823F40053D360DB
:101F78002046FFF705FF2268136923F49043136195
:101F88002268536923F02A0353612268D36843F413
:101F98000053D3600020E063202384F8393084F8AC
:101FA8003A3010BD80F83830FEF710FDD8E7012030
:101FB80070470000DFF834D0002103E00C4B5B5879
:101FC800435004310B480C4B42189A42F6D30B4A43
:101FD80002E0002342F8043B094B9A42F9D3FEF78A
:101FE8007FFC00F011F8FEF72FFC7047000002207C
:101FF8002C220008000000203C0400203C040020A3
:1020080030060020FEE7000070B50D4E0D4D761B22
:10201800B61006D0002455F8043B01349847A64270
:10202800F9D1094E094D761B00F0D4F8B61006D048
:10203800002455F8043B01349847A642F9D170BDF5
:102048002022000820220008282200082022000858
:10205800830730B548D0541E002A3FD0CAB2034681
:1020680001E0013C3AD303F8012B9D07F9D1032C79
:102078002DD9CDB245EA05250F2C45EA054536D9B7
:10208800A4F1100222F00F0C03F1200EE6444FEAEF
:10209800121C03F1100242E9045542E902551032BC
:1020A8007245F8D10CF1010214F00C0F03EB021287
:1020B80004F00F0C13D0ACF1040323F00303043332
:1020C800134442F8045B9342FBD10CF003042CB197
:1020D800CAB21C4403F8012B9C42FBD130BD6446B4
:1020E8001346002CF4D1F9E703461446BFE71A4615
:1020F800A446E0E7024B13B1024800F005B8704768
:10210800000000001D210008002301461A46184659
:1021180000F01AB838B5084B084D5B1B9C1007D067
:10212800043B1D44013C55F804399847002CF9D16B
:10213800BDE8384000F054B82C22000828220008D6
:10214800704700BF704700BF2DE9F047DFF880A057
:102158000646DAF8000098460F469146FFF7F0FF6A
:102168001A4B1B68D3F8484124B365681F2D26DC39
:102178005EB96B1C0235DAF80000636044F825701C
:10218800FFF7E0FF0020BDE8F08704EB850101239D
:10219800C1F88890D4F88821AB401A43022EC4F8BD
:1021A8008821C1F80881E4D1D4F88C211343C4F8FC
:1021B8008C31DEE703F5A674C3F84841D5E7DAF8B1
:1021C8000000FFF7BFFF4FF0FF30DCE714220008E4
:1021D80038040020F8B500BFF8BC08BC9E4670471C
:0C21E800F8B500BFF8BC08BC9E4670476C
:1021F40000000000000000000102030406070809B3
:102204000000000001020304000610160006101668
:042214001000002096
:08221800E0DFFF7F0100000080
:08222000FD200008AD010008DB
:042228008901000820
:10222C000024F40001000000100000000000000079
:10223C0000000000FC02002064030020CC030020FE
:10224C000000000000000000000000000000000082
:10225C000000000000000000000000000000000072
:10226C000000000000000000000000000000000062
:10227C000000000000000000000000000000000052
:10228C000000000000000000000000000000000042
:10229C000000000000000000000000000000000032
:1022AC000000000000000000000000000000000022
:1022BC000000000000000000000000000000000012
:1022CC000000000000000000000000000000000002
:1022DC0000000000000000000100000000000000F1
:1022EC000E33CDAB34126DE6ECDE05000B000000B6
:1022FC0000000000000000000000000000000000D2
:10230C0000000000000000000000000000000000C1
:10231C0000000000000000000000000000000000B1
:10232C0000000000000000000000000000000000A1
:0C265C0000000000000000002C06002020
:0400000508001FBD13
:00000001FF
